{
  "contractName": "Faucet",
  "abi": [
    {
      "inputs": [],
      "name": "numOfFunders",
      "outputs": [
        {
          "internalType": "uint256",
          "name": "",
          "type": "uint256"
        }
      ],
      "stateMutability": "view",
      "type": "function",
      "constant": true
    },
    {
      "inputs": [],
      "name": "owner",
      "outputs": [
        {
          "internalType": "address",
          "name": "",
          "type": "address"
        }
      ],
      "stateMutability": "view",
      "type": "function",
      "constant": true
    },
    {
      "inputs": [
        {
          "internalType": "address",
          "name": "newOwner",
          "type": "address"
        }
      ],
      "name": "transferOwnership",
      "outputs": [],
      "stateMutability": "nonpayable",
      "type": "function"
    },
    {
      "stateMutability": "payable",
      "type": "receive",
      "payable": true
    },
    {
      "inputs": [],
      "name": "emitLog",
      "outputs": [
        {
          "internalType": "bytes32",
          "name": "",
          "type": "bytes32"
        }
      ],
      "stateMutability": "pure",
      "type": "function",
      "constant": true
    },
    {
      "inputs": [],
      "name": "addFunds",
      "outputs": [],
      "stateMutability": "payable",
      "type": "function",
      "payable": true
    },
    {
      "inputs": [
        {
          "internalType": "uint256",
          "name": "amount",
          "type": "uint256"
        }
      ],
      "name": "withdraw",
      "outputs": [],
      "stateMutability": "nonpayable",
      "type": "function"
    },
    {
      "inputs": [],
      "name": "withdrawAll",
      "outputs": [],
      "stateMutability": "nonpayable",
      "type": "function"
    },
    {
      "inputs": [],
      "name": "getAllFunders",
      "outputs": [
        {
          "internalType": "address[]",
          "name": "",
          "type": "address[]"
        }
      ],
      "stateMutability": "view",
      "type": "function",
      "constant": true
    },
    {
      "inputs": [
        {
          "internalType": "uint256",
          "name": "index",
          "type": "uint256"
        }
      ],
      "name": "getFunderAtIndex",
      "outputs": [
        {
          "internalType": "address",
          "name": "",
          "type": "address"
        }
      ],
      "stateMutability": "view",
      "type": "function",
      "constant": true
    }
  ],
  "bytecode": "0x608060405234801561001057600080fd5b50336000806101000a81548173ffffffffffffffffffffffffffffffffffffffff021916908373ffffffffffffffffffffffffffffffffffffffff160217905550610c71806100606000396000f3fe60806040526004361061008a5760003560e01c8063a26759cb11610059578063a26759cb1461012c578063af7f2c9b14610136578063c218deca14610161578063f2fde38b1461019e578063f42c13bf146101c757610091565b80632e1a7d4d146100965780636fbbb55d146100bf578063853828b6146100ea5780638da5cb5b1461010157610091565b3661009157005b600080fd5b3480156100a257600080fd5b506100bd60048036038101906100b89190610768565b6101f2565b005b3480156100cb57600080fd5b506100d46102cc565b6040516100e19190610885565b60405180910390f35b3480156100f657600080fd5b506100ff61035a565b005b34801561010d57600080fd5b50610116610451565b60405161012391906108b6565b60405180910390f35b610134610475565b005b34801561014257600080fd5b5061014b6105a2565b60405161015891906108e0565b60405180910390f35b34801561016d57600080fd5b5061018860048036038101906101839190610768565b6105a8565b60405161019591906108b6565b60405180910390f35b3480156101aa57600080fd5b506101c560048036038101906101c09190610927565b610634565b005b3480156101d357600080fd5b506101dc610705565b6040516101e9919061096d565b60405180910390f35b8047811115610236576040517f08c379a000000000000000000000000000000000000000000000000000000000815260040161022d906109e5565b60405180910390fd5b67016345785d8a0000811115610281576040517f08c379a000000000000000000000000000000000000000000000000000000000815260040161027890610a77565b60405180910390fd5b3373ffffffffffffffffffffffffffffffffffffffff166108fc839081150290604051600060405180830381858888f193505050501580156102c7573d6000803e3d6000fd5b505050565b6060600380548060200260200160405190810160405280929190818152602001828054801561035057602002820191906000526020600020905b8160009054906101000a900473ffffffffffffffffffffffffffffffffffffffff1673ffffffffffffffffffffffffffffffffffffffff1681526020019060010190808311610306575b5050505050905090565b60008054906101000a900473ffffffffffffffffffffffffffffffffffffffff1673ffffffffffffffffffffffffffffffffffffffff163373ffffffffffffffffffffffffffffffffffffffff16146103e8576040517f08c379a00000000000000000000000000000000000000000000000000000000081526004016103df90610b09565b60405180910390fd5b60008054906101000a900473ffffffffffffffffffffffffffffffffffffffff1673ffffffffffffffffffffffffffffffffffffffff166108fc479081150290604051600060405180830381858888f1935050505015801561044e573d6000803e3d6000fd5b50565b60008054906101000a900473ffffffffffffffffffffffffffffffffffffffff1681565b6000339050600260008273ffffffffffffffffffffffffffffffffffffffff1673ffffffffffffffffffffffffffffffffffffffff16815260200190815260200160002060009054906101000a900460ff1661059f57600160008154809291906104de90610b58565b91905055506001600260008373ffffffffffffffffffffffffffffffffffffffff1673ffffffffffffffffffffffffffffffffffffffff16815260200190815260200160002060006101000a81548160ff0219169083151502179055506003819080600181540180825580915050600190039060005260206000200160009091909190916101000a81548173ffffffffffffffffffffffffffffffffffffffff021916908373ffffffffffffffffffffffffffffffffffffffff1602179055505b50565b60015481565b600060015482106105ee576040517f08c379a00000000000000000000000000000000000000000000000000000000081526004016105e590610bec565b60405180910390fd5b6003828154811061060257610601610c0c565b5b9060005260206000200160009054906101000a900473ffffffffffffffffffffffffffffffffffffffff169050919050565b60008054906101000a900473ffffffffffffffffffffffffffffffffffffffff1673ffffffffffffffffffffffffffffffffffffffff163373ffffffffffffffffffffffffffffffffffffffff16146106c2576040517f08c379a00000000000000000000000000000000000000000000000000000000081526004016106b990610b09565b60405180910390fd5b806000806101000a81548173ffffffffffffffffffffffffffffffffffffffff021916908373ffffffffffffffffffffffffffffffffffffffff16021790555050565b60007f4661756365740000000000000000000000000000000000000000000000000000905090565b600080fd5b6000819050919050565b61074581610732565b811461075057600080fd5b50565b6000813590506107628161073c565b92915050565b60006020828403121561077e5761077d61072d565b5b600061078c84828501610753565b91505092915050565b600081519050919050565b600082825260208201905092915050565b6000819050602082019050919050565b600073ffffffffffffffffffffffffffffffffffffffff82169050919050565b60006107ec826107c1565b9050919050565b6107fc816107e1565b82525050565b600061080e83836107f3565b60208301905092915050565b6000602082019050919050565b600061083282610795565b61083c81856107a0565b9350610847836107b1565b8060005b8381101561087857815161085f8882610802565b975061086a8361081a565b92505060018101905061084b565b5085935050505092915050565b6000602082019050818103600083015261089f8184610827565b905092915050565b6108b0816107e1565b82525050565b60006020820190506108cb60008301846108a7565b92915050565b6108da81610732565b82525050565b60006020820190506108f560008301846108d1565b92915050565b610904816107e1565b811461090f57600080fd5b50565b600081359050610921816108fb565b92915050565b60006020828403121561093d5761093c61072d565b5b600061094b84828501610912565b91505092915050565b6000819050919050565b61096781610954565b82525050565b6000602082019050610982600083018461095e565b92915050565b600082825260208201905092915050565b7f496e73756666696369656e742062616c616e6365000000000000000000000000600082015250565b60006109cf601483610988565b91506109da82610999565b602082019050919050565b600060208201905081810360008301526109fe816109c2565b9050919050565b7f546f206d75636820616d6f756e74207265717565737465643a43616e206e6f7460008201527f207769746864726177206d6f7265207468616e20302e31206574686572000000602082015250565b6000610a61603d83610988565b9150610a6c82610a05565b604082019050919050565b60006020820190508181036000830152610a9081610a54565b9050919050565b7f4f6e6c79206f776e65722063616e2063616c6c20746869732066756e6374696f60008201527f6e00000000000000000000000000000000000000000000000000000000000000602082015250565b6000610af3602183610988565b9150610afe82610a97565b604082019050919050565b60006020820190508181036000830152610b2281610ae6565b9050919050565b7f4e487b7100000000000000000000000000000000000000000000000000000000600052601160045260246000fd5b6000610b6382610732565b91507fffffffffffffffffffffffffffffffffffffffffffffffffffffffffffffffff8203610b9557610b94610b29565b5b600182019050919050565b7f496e646578206f7574206f6620626f756e647300000000000000000000000000600082015250565b6000610bd6601383610988565b9150610be182610ba0565b602082019050919050565b60006020820190508181036000830152610c0581610bc9565b9050919050565b7f4e487b7100000000000000000000000000000000000000000000000000000000600052603260045260246000fdfea2646970667358221220d10037e9776e7c74b0736a80bec271de4783109adc8be93543ac1a787af079ae64736f6c634300080d0033",
  "immutableReferences": {},
  "source": "// SPDX-License-Identifier: MIT\npragma solidity ^0.8.13;\n\nimport \"./Owned.sol\";\nimport \"./Logger.sol\";\nimport \"./IFaucet.sol\";\n\ncontract Faucet is Owned, Logger, IFaucet {\n    uint public numOfFunders;\n\n    mapping(address => bool) private funders;\n    address[] private funderList;\n\n    modifier limitWithdraw(uint amount) {\n        require(amount <= address(this).balance, \"Insufficient balance\");\n        require(\n            amount <= 0.1 ether,\n            \"To much amount requested:Can not withdraw more than 0.1 ether\"\n        );\n        _;\n    }\n\n    receive() external payable {}\n\n    function emitLog() public pure override returns (bytes32) {\n        return bytes32(\"Faucet\");\n    }\n\n    function addFunds() external payable override {\n        address funder = msg.sender;\n        if (!funders[funder]) {\n            numOfFunders++;\n            funders[funder] = true;\n            funderList.push(funder);\n        }\n    }\n\n    function withdraw(uint amount) external override limitWithdraw(amount) {\n        payable(msg.sender).transfer(amount);\n    }\n\n    function withdrawAll() external onlyOwner {\n        payable(owner).transfer(address(this).balance);\n    }\n\n    function getAllFunders() external view returns (address[] memory) {\n        return funderList;\n    }\n\n    function getFunderAtIndex(uint index) external view returns (address) {\n        require(index < numOfFunders, \"Index out of bounds\");\n        return funderList[index];\n    }\n}\n",
  "sourcePath": "D:\\blockchain\\faucet\\contracts\\FaucetContract.sol",
  "compiler": {
    "name": "solc",
    "version": "0.8.13+commit.abaa5c0e.Emscripten.clang"
  },
  "schemaVersion": "3.4.16",
  "updatedAt": "2024-07-02T18:42:30.102Z",
  "networkType": "ethereum",
  "devdoc": {
    "kind": "dev",
    "methods": {},
    "version": 1
  },
  "userdoc": {
    "kind": "user",
    "methods": {},
    "version": 1
  }
}